:10000000EAC0000003C1000001C10000FFC0000001
:10001000FDC00000FBC00000F9C00000F7C00000F8
:10002000F5C00000F3C000009CC3000013C4000032
:10003000EDC00000EBC00000E9C00000E7C0000018
:10004000E5C00000E3C00000E1C00000DFC0000028
:10005000DDC0000086C10000D9C00000D7C000008C
:10006000D5C00000D3C00000D1C00000CFC0000048
:10007000CDC00000CBC00000C9C00000C7C0000058
:10008000C5C00000C3C00000C1C00000BFC0000068
:10009000BDC00000BBC00000B9C00000B7C0000078
:1000A000B5C00000B3C00000B1C000000A002000CD
:1000B00052656C65613A20000A0020005072657339
:1000C000733A2000000100000B0112000200001D25
:1000D000013B0022000058013F002100002F0109D0
:1000E00000220100970115002101004801090003C9
:1000F0000000AC010401030904B00110020309046B
:10010000C20112000001C10601C126120100020055
:10011000000020C0167D0400010102000109023B1D
:1001200000020100C03209040000010301010009BE
:100130002111010001223F00070583030800010986
:100140000401000103000000092111010001221532
:10015000000705840320000105010906A1017501BE
:100160009508050719E029E7150025018102950189
:100170007508810395057501050819012905910286
:100180009501750391039506750815002568050707
:10019000190029688100C00631FF0974A153750850
:1001A000150026FF00952009758102C0040309048B
:1001B00010034D00660067004E0061006D00650091
:1001C000000012034B006500790062006F006100BF
:1001D00072006400000011241FBECFEFDAE0DEBF22
:1001E000CDBF12E0A0E0B1E0E6EEFCE002C0059079
:1001F0000D92AA3BB107D9F713E0AAEBB2E001C018
:100200001D92A83EB107E1F721D16BC5F9CECF937E
:10021000DF9320910E0130910F01E0E0F1E0ACEBB3
:10022000B2E00BC0EC01CC0FDD1FC20FD31F8881E1
:100230008D9381E0EC30F80759F0819191918F3FD7
:10024000910580F380E08D9381E0EC30F807A9F709
:100250008091BA028093BB02B2D1DF91CF91089511
:100260009C01220F331FF901E853FD4F41E0408309
:100270001182E0910E01F0910F01E20FF31F218135
:10028000222369F5209108013091090130930B0177
:1002900020930A0120910601309107013093090152
:1002A000209308012091040130910501309307014A
:1002B0002093060120910201309103013093050142
:1002C000209304012091000130910101309303013A
:1002D00020930201909301018093000198CF8091B7
:1002E000BA029081892B8093BA0291CF9C01220F90
:1002F000331FF901E853FD4F10821182E0910E0186
:10030000F0910F01E20FF31F2181222361F4E0E05D
:10031000F1E040E0219131912817390761F04F5FFA
:100320004630C1F774CF908190958091BA028923AD
:100330008093BA026CCF4630A8F7A42FB0E0FD013D
:10034000EE0FFF1FE050FF4FAA0FBB1FAE5FBE4F67
:100350008D919C911197918380834F5F463069F70F
:1003600056CF1F920F920FB60F9211240F931F9327
:100370002F933F934F935F936F937F938F939F93AD
:10038000AF93BF93CF93DF93EF93FF93C9ECD2E08A
:1003900000E010E008C0869588830F5F1F4F22960B
:1003A0000039110571F088818130A9F7C8019EDFFD
:1003B0008881869588830F5F1F4F2296003911052B
:1003C00091F74AD48091BA028232A9F0FF91EF915D
:1003D000DF91CF91BF91AF919F918F917F916F915D
:1003E0005F914F913F912F911F910F910F900FBEF1
:1003F0000F901F9018952BD1E9CF80E88093610072
:100400001092610085B7806885BF85B7806885BF19
:10041000BCD009C08FEF91EEA4E081509040A04085
:10042000E1F700C00000C8D08823A1F320D444D451
:100430004AD41092BA02E8ECF2E0108211823296AD
:1004400093E0E83EF907C9F7789408953F924F92F8
:100450005F926F927F928F929F92AF92BF92CF9254
:10046000DF92EF92FF920F931F93DF93CF93CDB75D
:10047000DEB7C059D0400FB6F894DEBF0FBECDBF77
:10048000BCDF4E010894811C911CF401CE018F56F3
:100490009F4F1192E817F907E1F74424552480E8AB
:1004A000382E842D90E0CED385E08A95F1F70000B8
:1004B0000AE5C02E01E0D02E1EE7A12E11E0B12EDC
:1004C00000E010E012C0E62CFF24F401EE0DFF1D49
:1004D0008081882391F1F401EE0DFF1D70820F5F82
:1004E0001F4F0231110509F43FC0652C600ED60183
:1004F000ED91FD916D01D5017D905D0180817822A6
:1005000011F7E62CFF24F401EE0DFF1D80818823F6
:1005100011F380EB90E06BD3802F8AD38EEA90E0CA
:1005200066D3842D85D38CEA90E061D3F701EE0F7A
:10053000FF1FE853FD4F3182CECF8CEB90E057D3B5
:10054000802F76D38AEB90E052D3842D71D388EB41
:1005500090E04DD3F701EE0FFF1FE853FD4F808170
:10056000882379F01182B7CFB2E15B0E842D90E041
:1005700072D34394842D883008F493CF44245524B7
:1005800090CF862D90E06CDEA6CF81E08093D700DF
:1005900080EA8093D80082E189BD09B400FEFDCFD6
:1005A00080E98093D8001092E0001092C3028CE0A2
:1005B0008093E200789408958091C3020895809119
:1005C000C302882309F43FC08FB7F89493E0909357
:1005D000E9002091E4009091E80095FD1DC08FBFD7
:1005E0008091C302882379F12E5C8091E400821708
:1005F00051F133E009C08FBF8091C302882319F104
:100600008091E400821709F18FB7F8943093E900E4
:100610009091E80095FFEFCF9091BB029093F1008D
:100620001092F100ECEBF2E091919093F10092E0E6
:10063000E23CF907C9F79AE39093E8001092C402EC
:100640008FBF80E008958FEF08958FEF0895F8949D
:1006500081E08093E00080E28093D800E9ECF0E054
:1006600010828FE19EE40197F1F700C000001DBAEF
:10067000109268001CBC10BE1FBA10927A00109233
:100680006E0010926F001092710010927200108232
:10069000ECEBF0E0108214B817B81AB81DB810BA15
:1006A000108215B818B81BB81EB811BA0C940038CF
:1006B00008959091C302992309F43FC09FB7F8941D
:1006C00024E02093E9002091C702222379F530919C
:1006D000E4002091E80025FD1DC03C5F9FBF909184
:1006E000E4009317A1F19091C302992331F144E002
:1006F00009C09FBF9091E400931749F19091C30204
:10070000992351F19FB7F8944093E9002091E800B4
:1007100025FFEFCF8093F1008091E80085FF0FC0A7
:1007200082E08093C5029FBF80E008952091E80099
:1007300025FF14C01092C702CACF8FEF08958AE335
:100740008093E8001092C5029FBF80E0089581E089
:100750008093C7028FEF08958FEF08959FBF8FEFAB
:1007600008951F920F920FB60F9211242F938F931B
:100770009F93EF93FF938091E1001092E10083FF3C
:100780000FC01092E90091E09093EB001092EC0002
:1007900092E29093ED0098E09093F0001092C302E3
:1007A00082FF39C08091C3028823A9F18091C502DC
:1007B0008823A9F081508093C502882381F484E0C6
:1007C0008093E9008091E80085FF06C01092F10057
:1007D0008091E80085FDFACF8AE38093E8002091BC
:1007E00010012223C1F08091C6028F5F8093C60260
:1007F00090E083709070009771F483E08093E9003B
:100800008091E80085FF07C08091C4028F5F8093CC
:10081000C402281751F0FF91EF919F918F912F9172
:100820000F900FBE0F901F9018951092C4028091E8
:10083000BB028093F1001092F100ECEBF2E08191A9
:100840008093F10082E0E23CF807C9F78AE38093E5
:10085000E800E1CF1F920F920FB60F9211242F9351
:100860003F934F935F936F937F938F939F93AF9338
:10087000BF93CF93DF93EF93FF931092E9008091A2
:10088000E80083FF40C0E091F1006091F100209109
:10089000F10030E04091F100942F80E0282B392BBB
:1008A0004091F10050E07091F100972F80E0482BCB
:1008B000592BA091F100B0E07091F100972F80E0EA
:1008C000A82BB92B82EF8093E800663091F1653058
:1008D00009F4F0C0693009F481C0683009F4F5C04A
:1008E000662309F0A4C08091E80080FFFCCFE238C5
:1008F00009F468C180E08093F1001092F1008EEF5E
:100900008093E80003C081E28093EB00FF91EF91B8
:10091000DF91CF91BF91AF919F918F917F916F9117
:100920005F914F913F912F910F900FBE0F901F90AD
:1009300018958BEC90E0BC016550704007C007969D
:10094000695F7F4FF1E08A309F07E9F2FC0137973A
:10095000C591D4912C173D0791F7FB01C591D49116
:100960004C175D0761F76E5F7F4FFB018591949196
:10097000282F392F6E5F7F4FFB016491AF3FB10588
:1009800011F008F0B3C0A61708F4AEC07EEF809156
:10099000E80090E0AC014570507041155105B9F385
:1009A00082FDB4CF562F613208F45EC050E2C90117
:1009B000452FFC010196E491E093F1004150C9F705
:1009C000852F815090E00196280F391F651B709389
:1009D000E8006623E1F65032D1F298CFEE2359F5C4
:1009E0002093C3028EEF8093E80041E083E091E022
:1009F0004093E900FC010196E491E093EB00EE23C3
:100A000069F09C012F5F3F4FFC0184918093EC00C3
:100A1000C9010196F90124912093ED004F5F453003
:100A200039F78EE18093EA001092EA006FCF6130CF
:100A3000F9F06330E9F04115510509F09CC0E13A45
:100A400009F466C0E13209F05ECF693009F451C0A3
:100A50006A3009F4C4C06B3009F055CF20931101FE
:100A60008EEF8093E80052CF662309F0A0CFAECF7F
:100A7000E23009F721153105F1F6742F7F77872FC2
:100A800081508430C0F68EEF8093E8007093E900C7
:100A9000633009F438CF89E18093EB0081E090E086
:100AA00002C0880F991F7A95E2F78093EA001092AE
:100AB000EA002CCF8EEF8093E8008091E80080FF61
:100AC000FCCF20682093E30021CFE03809F0B3CFBA
:100AD0008091E80080FFFCCF8091C3028093F100F9
:100AE0008EEF8093E80012CF6A2F50CFAFEFB0E0C7
:100AF0004ACF8091E80082FFFCCF8091F100809383
:100B0000C2028BEF8093E8008EEF8093E800FECE68
:100B1000613089F0623019F1633009F0F4CE8091D0
:100B2000E80080FFFCCF809111018093F1008EEFEF
:100B30008093E800EBCE8091E80080FFFCCF8091AD
:100B4000BB028093F1001092F100ECEBF2E0819196
:100B50008093F10082E0E23CF807C9F781CF8091F1
:100B6000E80080FFFCCF809110018093F1008EEFB0
:100B70008093E800CBCE4130510509F0C4CE6130FE
:100B800009F0C1CEE13A09F0BECE4EEF8091E80007
:100B900090E09C012570307021153105B9F382FD7C
:100BA000B5CE9A2FA132C0F090E2892F1092F100B9
:100BB0008150E1F7A91B4093E800AA2339F790324E
:100BC00029F3A4CE4093E9009091EB0081E095FFDA
:100BD00080E01092E9008FCEAA2339F7EBCF309353
:100BE00010011092C4028EEF8093E8008FCE1F9305
:100BF000CF93DF93FC011491112371F0EC0106C037
:100C0000812F57DDFE011491112331F021961A3006
:100C1000B9F78DE04EDDF4CFDF91CF911F910895AC
:100C20008A3018F097E3890F44CD90E3890F41CDC6
:100C30001F93182F82958F70F3DF812F8F70F0DF55
:100C40001F91089525B1FC01EF56FE4F217F808151
:100C5000282B25B90895089595B18091C2028295F7
:100C6000807F809580769F79892B85B90895CF9371
:100C7000DF9384B18E6084B985B1817F85B9E2E16B
:100C8000F1E08EE791E046E351E0A191B191EC01F2
:100C90002991CE0120953C9132233C93EA01A99100
:100CA000B991AE013C9132233C9321E0E633F20747
:100CB00061F7DF91CF91089584B1806684B985B1E1
:100CC000806685B9089584B5826084BD85B58460E9
:100CD00085BDEEE6F0E080818260808380E287BDA2
:060CE0000895F894FFCF17
:100CE6002C012C012C012C012C012C012C01990129
:100CF6007D0124002400270027002A002A002A005C
:100D06002A002A002A002A002A003000300030007B
:100D160030003000300025002500280028002B0078
:100D26002B002B002B002B002B002B002B0031005F
:100D3600310031003100310031002300230026004C
:100D46002600290029002900290029002900290058
:100D560029002F002F002F002F002F002F001080BA
:100D660040800102040810204080010210204080CB
:100D76000E00020406080A0C0E37000000000028C8
:100D860000000000001D001B0019000600100036C0
:100D96000000000000100100000000000000000438
:100DA600013400440000000000290064000A003DF0
:100DB600000B003F000000520000002C0000000065
:100DC60000650040013800450000000000000000FA
:100DD6000005000000110000000000500000005156
:100DE600004F000000120047001300000000000042
:100DF6000014001A001500080018000C000000007E
:100E06000048000000000000000F00000033003121
:100E1600000000200104001600090007000D000E66
:100E260000000000000000000000008001260046CF
:100E36000027004300000000001E001F00210020C4
:100E460000240025004E004D003E0000000000007A
:100E560000400000002F002A00080102012B003983
:100E66000017003C001C00300000000000000000DD
:100E76000000000000410000002D004200000000BC
:100E86000035003A0022003B0023002E004B004AAA
:0A0E96000001014C004900000000BB
:00000001FF
