:10000000EAC0000003C1000001C10000FFC0000001
:10001000FDC00000FBC00000F9C00000F7C00000F8
:10002000F5C00000F3C000006FC30000E1C3000092
:10003000EDC00000EBC00000E9C00000E7C0000018
:10004000E5C00000E3C00000E1C00000DFC0000028
:10005000DDC0000061C10000D9C00000D7C00000B1
:10006000D5C00000D3C00000D1C00000CFC0000048
:10007000CDC00000CBC00000C9C00000C7C0000058
:10008000C5C00000C3C00000C1C00000BFC0000068
:10009000BDC00000BBC00000B9C00000B7C0000078
:1000A000B5C00000B3C00000B1C00000507265735D
:1000B000733A200020000A0052656C65613A200006
:1000C00020000A00000100000B0112000200001DC8
:1000D000013B0022000058013F002100002F0109D0
:1000E00000220100970115002101004801090003C9
:1000F0000000AC010401030904B00110020309046B
:10010000C20112000001C10601C126120100020055
:10011000000020C0167D0400010102000109023B1D
:1001200000020100C03209040000010301010009BE
:100130002111010001223F00070583030800010986
:100140000401000103000000092111010001221532
:10015000000705840320000105010906A1017501BE
:100160009508050719E029E7150025018102950189
:100170007508810395057501050819012905910286
:100180009501750391039506750815002568050707
:10019000190029688100C00631FF0974A153750850
:1001A000150026FF00952009758102C0040309048B
:1001B00010034D00660067004E0061006D00650091
:1001C000000012034B006500790062006F006100BF
:1001D00072006400000011241FBECFEFDAE0DEBF22
:1001E000CDBF12E0A0E0B1E0E0E0FDE002C005908C
:1001F0000D92A635B107D9F713E0A6E5B2E001C02C
:100200001D92A033B107E1F7F7D078C5F9CECF93AF
:10021000DF938091000190910101A2E0B1E0C8E577
:10022000D2E00BC0F0E0EE0FFF1FE80FF91F2081B6
:10023000299321E0A830B20749F0ED91EF3F91F703
:1002400020E0299321E0A830B207B9F78091560247
:1002500080935E02DF91CF918BC1282F30E0220F77
:10026000331FF901EC59FD4F91E090831182E09129
:100270000001F0910101E20FF31F9181911117C06C
:1002800090910601909307019091050190930601CA
:1002900090910401909305019091030190930401C2
:1002A000909102019093030180930201B0CF80915D
:1002B00056029081892B80935602A9CF282F30E0D7
:1002C000220F331FF901EC59FD4F10821182E0918A
:1002D0000001F0910101E20FF31F9181911114C00F
:1002E000E2E0F1E090E02191281721F09F5F963045
:1002F000D1F78DCFE92FF0E0EE5FFE4F8181808353
:100300009F5F9630B9F7F5CF908190958091560216
:100310008923809356027BCF1F920F920FB60F92C4
:1003200011241F932F933F934F935F936F937F936A
:100330008F939F93AF93BF93CF93DF93EF93FF93ED
:10034000C5E6D2E010E006C0869588831F5F22963E
:10035000163661F088818130B9F7812FAFDF88814F
:10036000869588831F5F22961636A1F74ED480911A
:1003700056028232A1F0FF91EF91DF91CF91BF91B0
:10038000AF919F918F917F916F915F914F913F912D
:100390002F911F910F900FBE0F901F9018952ED187
:1003A000EACF80E8809361001092610085B7806891
:1003B00085BF85B7806885BFC1D009C02FEF81EEAA
:1003C00094E0215080409040E1F700C00000CDD083
:1003D0008823A1F331D469D483D410925602E5E680
:1003E000F2E0DF0111971C921082329623E0E13394
:1003F000F207B9F778940895CF93DF93CDB7DEB7BE
:10040000C756D1090FB6F894DEBF0FBECDBFC9DF06
:10041000FE013196CE0189599F4F1192E817F907D5
:10042000E1F7912C712CA0E88A2E892D90E0CCD395
:1004300085E08A95F1F70000E6E6CE2EE1E0DE2EBB
:10044000F0E6EF2EF1E0FF2EB12C30C020E00A2DB7
:1004500010E0E1E0F0E0EC0FFD1FE00FF11F808104
:100460008823C9F088EB90E0A8962FAFA89781D396
:100470008B2DA1D380EC90E07CD3892D9CD382EC92
:1004800090E077D3F801EE0FFF1FEC59FD4F81820A
:10049000A8962FADA897E1E0F0E0EC0FFD1FE00F6C
:1004A000F11F2083B394B6E0BB16B1F1AB2CA70CBF
:1004B000D601ED91FD916D01D7019D917D012081C6
:1004C000922321E009F0C2CF0A2D10E0E1E0F0E034
:1004D000EC0FFD1FE00FF11F80818111DCCF8CEA52
:1004E00090E0A8962FAFA89744D38B2D64D384EBCC
:1004F00090E03FD3892D5FD386EB90E03AD3F801AB
:10050000EE0FFF1FEC59FD4F8081A8962FADA897E5
:10051000882371F01182BFCF7B0E892D90E065D3C7
:10052000939480E1891508F080CF912C712C7DCFB8
:100530008A2D93DEA8962FADA897ADCF81E080934A
:10054000D70080EA8093D80082E189BD09B400FE1B
:10055000FDCF80E98093D8001092E00010926002F5
:100560008CE08093E2007894089580916002089571
:1005700080916002882309F43FC08FB7F89493E01C
:100580009093E9002091E4002E5C9091E80095FDA5
:100590001CC08FBF80916002882371F18091E400BC
:1005A000821751F133E009C08FBF80916002882328
:1005B00019F18091E4008217F9F08FB7F894309325
:1005C000E9009091E80095FFEFCF90915E02909343
:1005D000F1001092F100E8E5F2E091919093F100C2
:1005E00092E0EE35F907C9F79AE39093E80010928C
:1005F00061028FBF80E008958FEF0895F89481E045
:100600008093E00080E28093D800E9ECF0E0108273
:100610008FE19EE40197F1F700C000001DBA10922F
:1006200068001CBC10BE1FBA10927A0010926E00B7
:1006300010926F0010927100109272001082ECEB19
:10064000F0E0108214B817B81AB81DB810BA1082AA
:1006500015B818B81BB81EB811BA0C94003F08950D
:1006600090916002992309F440C09FB7F89424E068
:100670002093E9002091620221112FC03091E40003
:100680003C5F2091E80025FD1CC09FBF9091E400D5
:10069000931769F190916002992339F144E009C000
:1006A0009FBF9091E400931711F1909160029923FC
:1006B000E1F09FB7F8944093E9002091E80025FF0E
:1006C000EFCF8093F1008091E80085FF15C082E0B4
:1006D00080935F029FBF80E008952091E80025FF8E
:1006E00003C010926202CACF9FBF8FEF089581E0CE
:1006F000809362028FEF08958AE38093E80010925E
:100700005F029FBF80E008951F920F920FB60F9275
:1007100011248F939F93EF93FF938091E1001092A8
:10072000E10083FF0FC01092E90091E09093EB008D
:100730001092EC0092E29093ED0098E09093F0001C
:100740001092600282FF36C080916002882391F18E
:1007500080915F028823A9F0815080935F0281110C
:1007600010C084E08093E9008091E80085FF06C016
:100770001092F1008091E80085FDFACF8AE3809322
:10078000E800909109019923A9F0809163028F5F9D
:1007900080936302837071F483E08093E900809119
:1007A000E80085FF07C0809161028F5F809361023E
:1007B000891749F0FF91EF919F918F910F900FBE94
:1007C0000F901F9018951092610280915E028093A5
:1007D000F1001092F100E8E5F2E081918093F100E0
:1007E00082E0EE35F807C9F78AE38093E800E2CFAC
:1007F0001F920F920FB60F9211242F933F934F9396
:100800005F936F937F938F939F93AF93BF93CF9398
:10081000EF93FF931092E9008091E80083FF3CC0C2
:10082000F091F100E091F1002091F1003091F100A0
:10083000932F80E0AC01422B2091F1003091F10028
:10084000932F80E0BC01622B2091F1003091F100E8
:10085000932F80E0DC01A22B82EF8093E800E6304A
:1008600081F1E53009F4BEC0E93009F472C0E83026
:1008700009F498C0E111C1C08091E80080FFFCCF6D
:10088000F23809F440C180E08093F1001092F10049
:100890008EEF8093E80003C081E28093EB00FF912C
:1008A000EF91CF91BF91AF919F918F917F916F9178
:1008B0005F914F913F912F910F900FBE0F901F901E
:1008C0001895C9E084EC90E003C00796C15021F36D
:1008D000FC012591349142175307B9F7FC01329678
:1008E000259134916217730781F7FC013496459185
:1008F00054919A01FC0136965491AF3FB10511F025
:1009000008F0BAC0A51708F4B5C07EEF9091E800D2
:10091000492F4570D9F392FDC2CF652F513208F4AB
:100920005CC060E2C901462FFC010196E491E093AE
:10093000F1004150C9F7862F815090E00196280FB1
:10094000391F561B7093E8005111E0CF6032F1F26D
:10095000A6CFF1112AC0409360028EEF8093E80089
:1009600041E083E091E04093E9009C012F5F3F4F1D
:10097000FC0154915093EB00552309F4C2C0F901D6
:1009800024912093EC00FC0132960396E491E093CD
:10099000ED004F5F453039F78EE18093EA00109209
:1009A000EA007DCFF03809F459C06115710591F561
:1009B000F13A09F473C0F13209F06ECFE93009F46D
:1009C0005EC0EA3009F4CDC0EB3009F065CF40934A
:1009D0000A018EEF8093E80062CF5111A3CF70938C
:1009E000E8005DCF8EEF8093E8008091E80080FF03
:1009F000FCCF40684093E30052CFE13011F0E33088
:100A0000A1F6F23091F6452B09F48CC06115710501
:100A100009F442CF6130710509F03ECFE13009F0B1
:100A20003BCFF13A09F038CF2EEF8091E800982FB4
:100A30009570D9F382FD33CF9A2FA13208F46DC09F
:100A400090E2892F1092F1008150E1F7A91B2093C9
:100A5000E800A111EACF903241F321CF8091E80064
:100A600080FFFCCF809160028093F1008EEF809335
:100A7000E80015CF5A2F49CFAFEFB0E043CF8091B8
:100A8000E80082FFFCCF8091F100809357028BEF4A
:100A90008093E8008EEF8093E80001CFE13089F089
:100AA000E23019F1E33009F0F7CE8091E80080FFE1
:100AB000FCCF80910A018093F1008EEF8093E800D3
:100AC000EECE8091E80080FFFCCF80915E028093A3
:100AD000F1001092F100E8E5F2E081918093F100DD
:100AE00082E0EE35F807C9F774CF8091E80080FF07
:100AF000FCCF809109018093F1008EEF8093E80094
:100B0000CECEC90146CF6093E9008091EB0085FB12
:100B1000882780F91092E900B7CEA11192CF2093D7
:100B2000E800BDCE9B012F773327822F8150843080
:100B300008F06CCF8EEF8093E8002093E900E3305B
:100B400009F4AACE89E18093EB0081E090E0022EC7
:100B500001C0880F0A94EAF78093EA001092EA0035
:100B60009ECE50930901109261028EEF8093E800AF
:100B700096CE1F93CF93DF93EC012196FC01149145
:100B8000111108C00CC0812F6BDDFE01219614915C
:100B9000112329F01A30B9F78DE062DDF4CFDF912F
:100BA000CF911F9108958A3018F097E3890F58CD9F
:100BB00090E3890F55CDCF93C82F82958F70F3DFC7
:100BC0008C2F8F70CF91EFCFFC01EE0FFF1FE45EF3
:100BD000FE4F0190F081E02DDC01A55FBE4F9C919E
:100BE00090958081892380830895FC01EE0FFF1F7B
:100BF000E45EFE4F0190F081E02DDC01A55FBE4F69
:100C000020818C91282B2083089525B18091570253
:100C100030E2839FC0011124807C2F73282B25B9DB
:100C200024B18091570230E2839FC0011124807C5F
:100C30002F73282B24B90895CF93DF93EEE7F1E0CB
:100C400080E691E062E771E0A191B191EC01399108
:100C5000CE01432F40952C9124232C93EB01A99195
:100C6000B991BE012C91232B2C93D1E0EA38FD07DA
:100C700059F7EEE3F1E08BE091E04CE151E0A19116
:100C8000B191EC013991CE012C91232B2C93EA01E7
:100C9000A991B991AE012C91232B2C93D1E0E03690
:100CA000FD0769F7DF91CF910895E0E8F0E08081DA
:100CB00089628083E1E8F0E080818C6080838AEF44
:100CC00090E090938B0080938A0090938D008093A6
:100CD0008C0084B18F7384B985B18F7385B9089501
:100CE00084B5826084BD85B5846085BDEEE6F0E0A4
:100CF00080818260808380E287BD0895F894FFCF71
:100D00008A01FFFFFFFFFFFFFF7D012080401001F0
:100D10004001021020408080400204082B0028007F
:100D200028002B002B002E00310031003100310053
:100D3000310031002B002B002B002B002B002A0050
:100D4000270027002A002A002D0030003000300044
:100D50003000300030002A002A002A002A002A0031
:100D60000102040810202300230023002300230095
:100D7000230025002500250025002500250024004E
:100D80002400240024002400240001010201390071
:100D90002B001E00290008016400040014001F003D
:100DA000350004011D0016001A0020003A00000062
:100DB0001B000700080021003B000000060009009E
:100DC000150022003C00000019000A001700230053
:100DD0003D00000005000B001C0024003E002C001C
:100DE00011000D00180025003F00000010000E004B
:100DF0000C0026004000000036000F001200270003
:100E0000410000003700330013002D004200400174
:100E1000380034002F002E00430065000000310030
:100E200030000000440010012001280031002A0099
:100E300045005000000000004C00490046005100F1
:100E4000520000004D004A0047004F000000000023
:060E50004E004B004800BB
:00000001FF
