:10000000E3C00000FCC00000FAC00000F8C000001F
:10001000F6C00000F4C00000F2C00000F0C0000014
:10002000EEC00000ECC000004EC30000C5C30000DD
:10003000E6C00000E4C00000E2C00000E0C0000034
:10004000DEC00000DCC00000DAC00000D8C0000044
:10005000D6C0000075C10000D2C00000D0C00000B2
:10006000CEC00000CCC00000CAC00000C8C0000064
:10007000C6C00000C4C00000C2C00000C0C0000074
:10008000BEC00000BCC00000BAC00000B8C0000084
:10009000B6C00000B4C00000B2C00000B0C0000094
:1000A000AEC00000ACC00000AAC0000068656A20B5
:1000B0006967656E0A0000010000FD001200020081
:1000C000000F013B002200004A013F0021000021F7
:1000D000010900220100890115002101003A0109EE
:1000E000000300009E010401030904A201100203A1
:1000F0000904B40112000001C10601C12612010069
:100100000200000020C0167D040001010200010968
:10011000023B00020100C03209040000010301019A
:1001200000092111010001223F0007058303080097
:10013000010904010001030000000921110100016F
:100140002215000705840320000105010906A1010D
:1001500075019508050719E029E7150025018102B9
:100160009501750881039505750105081901290593
:100170009102950175039103950675081500256890
:100180000507190029688100C00631FF0974A153D1
:100190007508150026FF00952009758102C004032B
:1001A000090410034D00660067004E0061006D00F9
:1001B0006500000012034B006500790062006F00CB
:1001C000610072006400000011241FBECFEFDAE06E
:1001D000DEBFCDBF12E0A0E0B1E0E4EBFCE002C086
:1001E00005900D92AE35B107D9F713E0AEE5B2E058
:1001F00001C01D92A833B107E1F716D159C500CF50
:10020000CF93DF9380910E0190910F01E5E0F1E033
:10021000A0E6B2E009C0EC01C20FD11D28812D93E8
:1002200021E0EB30F20749F021912F3FA1F720E0C8
:100230002D9321E0EB30F207B9F780915E028093B5
:100240005F02A1D1DF91CF910895282F30E0E09196
:100250000101F0910201E20FF31F91E09083E09120
:100260000301F0910401E20FF31F1082E0910C01F1
:10027000F0910D01E20FF31F90819923B9F4909151
:10028000090190930A0190910801909309019091BE
:1002900007019093080190910601909307019091B6
:1002A00005019093060180930501AACFE0910E010C
:1002B000F0910F01E20FF31F80915E029081892B74
:1002C00080935E029DCF282F30E0E0910101F091F4
:1002D0000201E20FF31F1082E0910301F09104018B
:1002E000E20FF31F1082E0910C01F0910D01E20F7B
:1002F000F31F9081992351F4E5E0F1E090E0219122
:10030000281791F09F5F9630D1F77ACFE0910E01D8
:10031000F0910F01E20FF31F9081909580915E02A2
:10032000892380935E026CCF963078F7E92FF0E056
:10033000EB5FFE4F818180839F5F9630B9F760CF7E
:100340001F920F920FB60F9211240F931F932F93AA
:100350003F934F935F936F937F938F939F93AF934D
:10036000BF93CF93DF93EF93FF93C0E0D0E007C03C
:100370008081869580832196C636D105E9F09E015D
:10038000220F822F8E01000F111FE0910301F091C7
:100390000401E00FF11F9081913051F794DFE0915B
:1003A0000301F0910401E00FF11F808186958083A5
:1003B0002196C636D10519F706D4FF91EF91DF914A
:1003C000CF91BF91AF919F918F917F916F915F91ED
:1003D0004F913F912F911F910F910F900FBE0F9052
:1003E0001F90189580E88093610010926100B1D051
:1003F00009C08FEF99E6A8E181509040A040E1F755
:1004000000C00000BDD08823A1F3F0D328D442D48B
:1004100010925E02ECE6F2E01192119293E0E83362
:10042000F907D1F7789408957F928F929F92AF92B7
:10043000BF92CF92DF92EF92FF920F931F93DF93C1
:10044000CF9300D0CDB7DEB78DB79EB78C5C904010
:100450000FB6F8949EBF0FBE8DBFADB6BEB6089462
:10046000A11CB11CBFDF8CEA90E073D3F50180E0E2
:1004700010828E5F32968C3CD9F78824992430E81C
:10048000732E892D90E07ED395E09A95F1F70000C8
:100490000AE211E026E3C22E21E0D22E982D12C0EE
:1004A00040E0292F30E07501E20EF31EF701808154
:1004B000882309F03FC0F70140839E5FF1E00633D7
:1004C0001F0759F1D801ED91FD918D01D6018D9154
:1004D0006D012081822341E019F7292F30E0750159
:1004E000E20EF31ED7018C91882329F7E0910101D8
:1004F000F0910201E20FF31F8081882319F1E0914E
:100500000301F0910401E20FF31F1082F701408311
:100510009E5FF1E006331F07A9F68CE0880E892D57
:1005200090E041D39394992D913108F4AACF882477
:100530009924A7CFE0910301F0910401E20FF31F8A
:100540007082B9CF892F49839A837FDE49819A814E
:10055000B2CF81E08093D70080EA8093D80082E117
:1005600089BD09B400FEFDCF80E98093D8001092C8
:10057000E000109267028CE08093E2007894089586
:1005800080916702089580916702882309F43FC033
:100590008FB7F89493E09093E9002091E400909154
:1005A000E80095FD1DC08FBF80916702882379F117
:1005B0002E5C8091E400821751F133E009C08FBFB7
:1005C00080916702882319F18091E400821709F174
:1005D0008FB7F8943093E9009091E80095FFEFCF42
:1005E00090915F029093F1001092F100E0E6F2E04A
:1005F00091919093F10092E0E636F907C9F79AE3FA
:100600009093E800109268028FBF80E008958FEF0A
:1006100008958FEF089590916702992309F43FC0E0
:100620009FB7F89424E02093E90020916B022223E5
:1006300079F53091E4002091E80025FD1DC03C5F74
:100640009FBF9091E4009317A1F1909167029923C5
:1006500031F144E009C09FBF9091E400931749F144
:1006600090916702992351F19FB7F8944093E90064
:100670002091E80025FFEFCF8093F1008091E80002
:1006800085FF0FC082E0809369029FBF80E00895DC
:100690002091E80025FF14C010926B02CACF8FEFA3
:1006A00008958AE38093E800109269029FBF80E07A
:1006B000089581E080936B028FEF08958FEF089586
:1006C0009FBF8FEF08951F920F920FB60F921124C4
:1006D0002F938F939F93EF93FF938091E10010925C
:1006E000E10083FF0FC01092E90091E09093EB00CE
:1006F0001092EC0092E29093ED0098E09093F0005D
:100700001092670282FF39C0809167028823A9F1A5
:10071000809169028823A9F081508093690288231F
:1007200081F484E08093E9008091E80085FF06C0B1
:100730001092F1008091E80085FDFACF8AE3809362
:10074000E800209110012223C1F080916A028F5F9E
:1007500080936A0290E083709070009771F483E058
:100760008093E9008091E80085FF07C080916802CE
:100770008F5F80936802281751F0FF91EF919F914E
:100780008F912F910F900FBE0F901F901895109280
:10079000680280915F028093F1001092F100E0E620
:1007A000F2E081918093F10082E0E636F807C9F724
:1007B0008AE38093E800E1CF1F920F920FB60F9269
:1007C00011242F933F934F935F936F937F938F9356
:1007D0009F93AF93BF93CF93DF93EF93FF931092C9
:1007E000E9008091E80083FF40C0E091F100609152
:1007F000F1002091F10030E04091F100942F80E071
:10080000282B392B4091F10050E07091F100972F87
:1008100080E0482B592BA091F100B0E07091F100DD
:10082000972F80E0A82BB92B82EF8093E8006630E9
:1008300091F1653009F4F0C0693009F481C0683085
:1008400009F4F5C0662309F0A4C08091E80080FF98
:10085000FCCFE23809F468C180E08093F100109287
:10086000F1008EEF8093E80003C081E28093EB00FB
:10087000FF91EF91DF91CF91BF91AF919F918F91B8
:100880007F916F915F914F913F912F910F900FBE8C
:100890000F901F9018958DEB90E0BC016550704053
:1008A00007C00796695F7F4FF0E08C3F9F07E9F232
:1008B000FC013797C591D4912C173D0791F7FB01A7
:1008C000C591D4914C175D0761F76E5F7F4FFB01B7
:1008D00085919491282F392F6E5F7F4FFB01649192
:1008E000AF3FB10511F008F0B3C0A61708F4AEC0D1
:1008F0007EEF8091E80090E0AC01457050704115AA
:100900005105B9F382FDB4CF562F613208F45EC0B1
:1009100050E2C901452FFC010196E491E093F100FA
:100920004150C9F7852F815090E00196280F391F5B
:10093000651B7093E8006623E1F65032D1F298CF40
:10094000EE2359F5209367028EEF8093E80041E093
:1009500085EF90E04093E900FC010196E491E0937B
:10096000EB00EE2369F09C012F5F3F4FFC01849167
:100970008093EC00C9010196F90124912093ED00C8
:100980004F5F453039F78EE18093EA001092EA001C
:100990006FCF6130F9F06330E9F04115510509F08E
:1009A0009CC0E13A09F466C0E13209F05ECF6930DB
:1009B00009F451C06A3009F4C4C06B3009F055CF56
:1009C000209311018EEF8093E80052CF662309F047
:1009D000A0CFAECFE23009F721153105F1F6742F23
:1009E0007F77872F81508430C0F68EEF8093E800A8
:1009F0007093E900633009F438CF89E18093EB000C
:100A000081E090E002C0880F991F7A95E2F7809309
:100A1000EA001092EA002CCF8EEF8093E8008091DC
:100A2000E80080FFFCCF20682093E30021CFE0386E
:100A300009F0B3CF8091E80080FFFCCF809167027E
:100A40008093F1008EEF8093E80012CF6A2F50CF91
:100A5000AFEFB0E04ACF8091E80082FFFCCF8091F9
:100A6000F100809366028BEF8093E8008EEF809315
:100A7000E800FECE613089F0623019F1633009F090
:100A8000F4CE8091E80080FFFCCF8091110180932B
:100A9000F1008EEF8093E800EBCE8091E80080FFBC
:100AA000FCCF80915F028093F1001092F100E0E6AC
:100AB000F2E081918093F10082E0E636F807C9F711
:100AC00081CF8091E80080FFFCCF8091100180935E
:100AD000F1008EEF8093E800CBCE4130510509F054
:100AE000C4CE613009F0C1CEE13A09F0BECE4EEF7E
:100AF0008091E80090E09C0125703070211531054F
:100B0000B9F382FDB5CE9A2FA132C0F090E2892FC1
:100B10001092F1008150E1F7A91B4093E800AA234D
:100B200039F7903229F3A4CE4093E9009091EB007D
:100B300081E095FF80E01092E9008FCEAA2339F77B
:100B4000EBCF30931001109268028EEF8093E80093
:100B50008FCE1F93CF93DF93FC011491112371F07B
:100B6000EC0106C0812F57DDFE011491112331F0F5
:100B700021961A30B9F78DE04EDDF4CFDF91CF9199
:100B80001F910895FC01EE0FFF1FE25AFE4F0190E6
:100B9000F081E02D80589E4FDC019C9190958081E2
:100BA000892380830895FC01EE0FFF1FE25AFE4F58
:100BB0000190F081E02D80589E4F2081DC018C91C6
:100BC000282B2083089595B1809166028295880F25
:100BD000807C9F73892B85B994B180916602829540
:100BE000880F807C9F73892B84B90895CF93DF93FE
:100BF000E2E1F1E086E391E06EE171E0A191B19173
:100C0000EC013991CE01432F40952C9124232C9354
:100C1000EB01A991B991BE012C91232B2C9321E0DA
:100C2000EE31F20759F7ECE3F1E080E891E04EE5B0
:100C300051E0A191B191EC013991CE012C91232B7E
:100C40002C93EA01A991B991AE012C91232B2C93FD
:100C500021E0EE35F20769F7DF91CF910895E0E8E2
:100C6000F0E0808189628083E1E8F0E080818C603F
:100C700080838AEF90E090938B0080938A0090931A
:100C80008D0080938C0084B18F7384B985B18F738C
:100C900085B9089584B5826084BD85B5846085BDBD
:100CA000EEE6F0E080818260808380E287BD089577
:040CB000F894FFCFE6
:100CB400CC6C026D02FFFFFFFFFFFFFF9201910169
:100CC4007D012400240024002400240024002500A5
:100CD40025002500250025002500230023002300EE
:100CE4002300230023000102040810202A00270007
:100CF40027002A002A002D00300030003000300088
:100D0400300030002A002A002A002A002A002B0082
:100D1400280028002B002B002E0031003100310068
:100D24003100310031002B002B002B002B002B0055
:100D340020804010014001021020408080400204C5
:100D4400080101020139002B001E0029000801647A
:100D540000040014001F00350004011D0016001AD1
:100D64000020003A0000001B000700080021003B9F
:100D740000000006000900150022003C00000019D4
:100D8400000A00170023003D00000005000B001CB2
:100D94000024003E002C0011000D00180025003F27
:100DA40000000010000E000C002600400000003679
:100DB400000F0012002700410040013700330013E8
:100DC400002D0042008001380034002F002E004323
:100DD40000650000003100300000004400100120D4
:100DE40001280031002A0045005000000000004C9A
:100DF40000490046005100520000004D004A0047DF
:0E0E0400004F00000000004E004B00480000B0
:00000001FF
